{
  "contractName": "RealEstate",
  "abi": [
    {
      "anonymous": false,
      "inputs": [
        {
          "indexed": false,
          "internalType": "address",
          "name": "_owner",
          "type": "address"
        },
        {
          "indexed": false,
          "internalType": "uint256",
          "name": "_propertyId",
          "type": "uint256"
        }
      ],
      "name": "Add",
      "type": "event"
    },
    {
      "anonymous": false,
      "inputs": [
        {
          "indexed": true,
          "internalType": "address",
          "name": "_from",
          "type": "address"
        },
        {
          "indexed": true,
          "internalType": "address",
          "name": "_to",
          "type": "address"
        },
        {
          "indexed": false,
          "internalType": "uint256",
          "name": "_cost",
          "type": "uint256"
        }
      ],
      "name": "EtherTransfer",
      "type": "event"
    },
    {
      "anonymous": false,
      "inputs": [
        {
          "indexed": true,
          "internalType": "address",
          "name": "_from",
          "type": "address"
        },
        {
          "indexed": true,
          "internalType": "address",
          "name": "_to",
          "type": "address"
        },
        {
          "indexed": false,
          "internalType": "uint256",
          "name": "_propertyId",
          "type": "uint256"
        }
      ],
      "name": "Transfer",
      "type": "event"
    },
    {
      "anonymous": false,
      "inputs": [
        {
          "indexed": false,
          "internalType": "string",
          "name": "_msg",
          "type": "string"
        },
        {
          "indexed": false,
          "internalType": "uint256",
          "name": "_cost",
          "type": "uint256"
        }
      ],
      "name": "UpdateStatus",
      "type": "event"
    },
    {
      "constant": true,
      "inputs": [
        {
          "internalType": "address",
          "name": "",
          "type": "address"
        },
        {
          "internalType": "uint256",
          "name": "",
          "type": "uint256"
        }
      ],
      "name": "_ownedProperty",
      "outputs": [
        {
          "internalType": "address",
          "name": "ownerAddress",
          "type": "address"
        },
        {
          "internalType": "string",
          "name": "location",
          "type": "string"
        },
        {
          "internalType": "uint256",
          "name": "propertyId",
          "type": "uint256"
        },
        {
          "internalType": "bool",
          "name": "isAvailableForSale",
          "type": "bool"
        },
        {
          "internalType": "string",
          "name": "propertyType",
          "type": "string"
        },
        {
          "internalType": "uint256",
          "name": "cost",
          "type": "uint256"
        }
      ],
      "payable": false,
      "stateMutability": "view",
      "type": "function"
    },
    {
      "constant": true,
      "inputs": [],
      "name": "owner",
      "outputs": [
        {
          "internalType": "address",
          "name": "",
          "type": "address"
        }
      ],
      "payable": false,
      "stateMutability": "view",
      "type": "function"
    },
    {
      "constant": true,
      "inputs": [],
      "name": "totalPropertyCounter",
      "outputs": [
        {
          "internalType": "uint256",
          "name": "",
          "type": "uint256"
        }
      ],
      "payable": false,
      "stateMutability": "view",
      "type": "function"
    },
    {
      "constant": false,
      "inputs": [],
      "name": "RegisterUser",
      "outputs": [],
      "payable": false,
      "stateMutability": "nonpayable",
      "type": "function"
    },
    {
      "constant": false,
      "inputs": [
        {
          "internalType": "address payable",
          "name": "propertyOwner",
          "type": "address"
        },
        {
          "internalType": "string",
          "name": "_location",
          "type": "string"
        },
        {
          "internalType": "uint256",
          "name": "_cost",
          "type": "uint256"
        },
        {
          "internalType": "string",
          "name": "_propertyType",
          "type": "string"
        }
      ],
      "name": "addProperty",
      "outputs": [],
      "payable": false,
      "stateMutability": "nonpayable",
      "type": "function"
    },
    {
      "constant": false,
      "inputs": [
        {
          "internalType": "address payable",
          "name": "rec",
          "type": "address"
        },
        {
          "internalType": "uint256",
          "name": "_amount",
          "type": "uint256"
        }
      ],
      "name": "transferEther",
      "outputs": [],
      "payable": true,
      "stateMutability": "payable",
      "type": "function"
    },
    {
      "constant": false,
      "inputs": [
        {
          "internalType": "address payable",
          "name": "_landBuyer",
          "type": "address"
        },
        {
          "internalType": "uint256",
          "name": "_propertyId",
          "type": "uint256"
        }
      ],
      "name": "transferProperty",
      "outputs": [
        {
          "internalType": "bool",
          "name": "",
          "type": "bool"
        }
      ],
      "payable": true,
      "stateMutability": "payable",
      "type": "function"
    },
    {
      "constant": true,
      "inputs": [
        {
          "internalType": "address",
          "name": "_propertyHolder",
          "type": "address"
        },
        {
          "internalType": "uint256",
          "name": "_index",
          "type": "uint256"
        }
      ],
      "name": "getProperty",
      "outputs": [
        {
          "internalType": "string",
          "name": "",
          "type": "string"
        },
        {
          "internalType": "uint256",
          "name": "",
          "type": "uint256"
        },
        {
          "internalType": "address",
          "name": "",
          "type": "address"
        },
        {
          "internalType": "string",
          "name": "",
          "type": "string"
        },
        {
          "internalType": "uint256",
          "name": "",
          "type": "uint256"
        },
        {
          "internalType": "bool",
          "name": "",
          "type": "bool"
        }
      ],
      "payable": false,
      "stateMutability": "view",
      "type": "function"
    },
    {
      "constant": true,
      "inputs": [
        {
          "internalType": "uint256",
          "name": "_index",
          "type": "uint256"
        }
      ],
      "name": "getOwnerProperty",
      "outputs": [
        {
          "internalType": "string",
          "name": "",
          "type": "string"
        },
        {
          "internalType": "uint256",
          "name": "",
          "type": "uint256"
        },
        {
          "internalType": "address",
          "name": "",
          "type": "address"
        },
        {
          "internalType": "string",
          "name": "",
          "type": "string"
        },
        {
          "internalType": "uint256",
          "name": "",
          "type": "uint256"
        },
        {
          "internalType": "bool",
          "name": "",
          "type": "bool"
        }
      ],
      "payable": false,
      "stateMutability": "view",
      "type": "function"
    },
    {
      "constant": false,
      "inputs": [
        {
          "internalType": "uint256",
          "name": "property_id",
          "type": "uint256"
        }
      ],
      "name": "RemoveFromSale",
      "outputs": [
        {
          "internalType": "string",
          "name": "",
          "type": "string"
        }
      ],
      "payable": false,
      "stateMutability": "nonpayable",
      "type": "function"
    },
    {
      "constant": false,
      "inputs": [
        {
          "internalType": "uint256",
          "name": "property_id",
          "type": "uint256"
        }
      ],
      "name": "AddForSale",
      "outputs": [
        {
          "internalType": "string",
          "name": "",
          "type": "string"
        }
      ],
      "payable": false,
      "stateMutability": "nonpayable",
      "type": "function"
    },
    {
      "constant": true,
      "inputs": [
        {
          "internalType": "address",
          "name": "_propertyHolder",
          "type": "address"
        }
      ],
      "name": "getNoOfProperty",
      "outputs": [
        {
          "internalType": "uint256",
          "name": "",
          "type": "uint256"
        }
      ],
      "payable": false,
      "stateMutability": "view",
      "type": "function"
    },
    {
      "constant": false,
      "inputs": [
        {
          "internalType": "address",
          "name": "_propertyHolder",
          "type": "address"
        },
        {
          "internalType": "uint256",
          "name": "property",
          "type": "uint256"
        }
      ],
      "name": "buyProperty",
      "outputs": [],
      "payable": true,
      "stateMutability": "payable",
      "type": "function"
    }
  ],
  "bytecode": "0x6080604052604051620000129062000084565b604051809103906000f0801580156200002f573d6000803e3d6000fd5b50600560006101000a81548173ffffffffffffffffffffffffffffffffffffffff021916908373ffffffffffffffffffffffffffffffffffffffff1602179055503480156200007d57600080fd5b5062000091565b60588062002a0883390190565b61296780620000a16000396000f3fe6080604052600436106100c25760003560e01c8063b6d070171161007f578063bfb6bd1f11610059578063bfb6bd1f14610797578063e656406214610923578063e99e2b3314610971578063f644c318146109d6576100c2565b8063b6d07017146103ee578063bc2c57df14610577578063bdccb5981461062b576100c2565b806305b1137b146100c7578063189e92ae14610115578063739b1fa21461012c57806387569aa2146101575780638da5cb5b146102e357806392d08c621461033a575b600080fd5b610113600480360360408110156100dd57600080fd5b81019080803573ffffffffffffffffffffffffffffffffffffffff16906020019092919080359060200190929190505050610a3c565b005b34801561012157600080fd5b5061012a610b22565b005b34801561013857600080fd5b50610141610b6c565b6040518082815260200191505060405180910390f35b34801561016357600080fd5b506101b06004803603604081101561017a57600080fd5b81019080803573ffffffffffffffffffffffffffffffffffffffff16906020019092919080359060200190929190505050610b72565b604051808773ffffffffffffffffffffffffffffffffffffffff1673ffffffffffffffffffffffffffffffffffffffff168152602001806020018681526020018515151515815260200180602001848152602001838103835288818151815260200191508051906020019080838360005b8381101561023c578082015181840152602081019050610221565b50505050905090810190601f1680156102695780820380516001836020036101000a031916815260200191505b50838103825285818151815260200191508051906020019080838360005b838110156102a2578082015181840152602081019050610287565b50505050905090810190601f1680156102cf5780820380516001836020036101000a031916815260200191505b509850505050505050505060405180910390f35b3480156102ef57600080fd5b506102f8610d25565b604051808273ffffffffffffffffffffffffffffffffffffffff1673ffffffffffffffffffffffffffffffffffffffff16815260200191505060405180910390f35b34801561034657600080fd5b506103736004803603602081101561035d57600080fd5b8101908080359060200190929190505050610d4a565b6040518080602001828103825283818151815260200191508051906020019080838360005b838110156103b3578082015181840152602081019050610398565b50505050905090810190601f1680156103e05780820380516001836020036101000a031916815260200191505b509250505060405180910390f35b3480156103fa57600080fd5b506105756004803603608081101561041157600080fd5b81019080803573ffffffffffffffffffffffffffffffffffffffff1690602001909291908035906020019064010000000081111561044e57600080fd5b82018360208201111561046057600080fd5b8035906020019184600183028401116401000000008311171561048257600080fd5b91908080601f016020809104026020016040519081016040528093929190818152602001838380828437600081840152601f19601f82011690508083019250505050505050919291929080359060200190929190803590602001906401000000008111156104ef57600080fd5b82018360208201111561050157600080fd5b8035906020019184600183028401116401000000008311171561052357600080fd5b91908080601f016020809104026020016040519081016040528093929190818152602001838380828437600081840152601f19601f820116905080830192505050505050509192919290505050610f04565b005b34801561058357600080fd5b506105b06004803603602081101561059a57600080fd5b8101908080359060200190929190505050611151565b6040518080602001828103825283818151815260200191508051906020019080838360005b838110156105f05780820151818401526020810190506105d5565b50505050905090810190601f16801561061d5780820380516001836020036101000a031916815260200191505b509250505060405180910390f35b34801561063757600080fd5b506106646004803603602081101561064e57600080fd5b810190808035906020019092919050505061130b565b60405180806020018781526020018673ffffffffffffffffffffffffffffffffffffffff1673ffffffffffffffffffffffffffffffffffffffff1681526020018060200185815260200184151515158152602001838103835289818151815260200191508051906020019080838360005b838110156106f05780820151818401526020810190506106d5565b50505050905090810190601f16801561071d5780820380516001836020036101000a031916815260200191505b50838103825286818151815260200191508051906020019080838360005b8381101561075657808201518184015260208101905061073b565b50505050905090810190601f1680156107835780820380516001836020036101000a031916815260200191505b509850505050505050505060405180910390f35b3480156107a357600080fd5b506107f0600480360360408110156107ba57600080fd5b81019080803573ffffffffffffffffffffffffffffffffffffffff169060200190929190803590602001909291905050506116bb565b60405180806020018781526020018673ffffffffffffffffffffffffffffffffffffffff1673ffffffffffffffffffffffffffffffffffffffff1681526020018060200185815260200184151515158152602001838103835289818151815260200191508051906020019080838360005b8381101561087c578082015181840152602081019050610861565b50505050905090810190601f1680156108a95780820380516001836020036101000a031916815260200191505b50838103825286818151815260200191508051906020019080838360005b838110156108e25780820151818401526020810190506108c7565b50505050905090810190601f16801561090f5780820380516001836020036101000a031916815260200191505b509850505050505050505060405180910390f35b61096f6004803603604081101561093957600080fd5b81019080803573ffffffffffffffffffffffffffffffffffffffff16906020019092919080359060200190929190505050611a66565b005b34801561097d57600080fd5b506109c06004803603602081101561099457600080fd5b81019080803573ffffffffffffffffffffffffffffffffffffffff169060200190929190505050612069565b6040518082815260200191505060405180910390f35b610a22600480360360408110156109ec57600080fd5b81019080803573ffffffffffffffffffffffffffffffffffffffff169060200190929190803590602001909291905050506120b5565b604051808215151515815260200191505060405180910390f35b670de0b6b3a7640000341015610a5157600080fd5b6000604051610a5f906126d4565b604051809103906000f080158015610a7b573d6000803e3d6000fd5b5090508073ffffffffffffffffffffffffffffffffffffffff1663d0679d3484846040518363ffffffff1660e01b8152600401808373ffffffffffffffffffffffffffffffffffffffff1673ffffffffffffffffffffffffffffffffffffffff16815260200182815260200192505050600060405180830381600087803b158015610b0557600080fd5b505af1158015610b19573d6000803e3d6000fd5b50505050505050565b336000806101000a81548173ffffffffffffffffffffffffffffffffffffffff021916908373ffffffffffffffffffffffffffffffffffffffff1602179055506000600181905550565b60015481565b60036020528160005260406000208181548110610b8b57fe5b9060005260206000209060060201600091509150508060000160009054906101000a900473ffffffffffffffffffffffffffffffffffffffff1690806001018054600181600116156101000203166002900480601f016020809104026020016040519081016040528092919081815260200182805460018160011615610100020316600290048015610c5e5780601f10610c3357610100808354040283529160200191610c5e565b820191906000526020600020905b815481529060010190602001808311610c4157829003601f168201915b5050505050908060020154908060030160009054906101000a900460ff1690806004018054600181600116156101000203166002900480601f016020809104026020016040519081016040528092919081815260200182805460018160011615610100020316600290048015610d155780601f10610cea57610100808354040283529160200191610d15565b820191906000526020600020905b815481529060010190602001808311610cf857829003601f168201915b5050505050908060050154905086565b6000809054906101000a900473ffffffffffffffffffffffffffffffffffffffff1681565b6060600080339050600091505b600360008273ffffffffffffffffffffffffffffffffffffffff1673ffffffffffffffffffffffffffffffffffffffff16815260200190815260200160002080549050821015610ec45783600360008373ffffffffffffffffffffffffffffffffffffffff1673ffffffffffffffffffffffffffffffffffffffff1681526020019081526020016000208381548110610dec57fe5b9060005260206000209060060201600201541415610eb7576001600360008373ffffffffffffffffffffffffffffffffffffffff1673ffffffffffffffffffffffffffffffffffffffff1681526020019081526020016000208381548110610e5057fe5b906000526020600020906006020160030160006101000a81548160ff0219169083151502179055506040518060400160405280600e81526020017f414444454420464f522053414c4500000000000000000000000000000000000081525092505050610eff565b8180600101925050610d57565b6040518060400160405280600f81526020017f494e56414c4944204c414e442049440000000000000000000000000000000000815250925050505b919050565b6000809054906101000a900473ffffffffffffffffffffffffffffffffffffffff1673ffffffffffffffffffffffffffffffffffffffff163373ffffffffffffffffffffffffffffffffffffffff1614610f5d57600080fd5b6001805401600181905550610f706126e1565b6040518060c001604052808673ffffffffffffffffffffffffffffffffffffffff1681526020018581526020016001548152602001600115158152602001838152602001848152509050600360003373ffffffffffffffffffffffffffffffffffffffff1673ffffffffffffffffffffffffffffffffffffffff168152602001908152602001600020819080600181540180825580915050906001820390600052602060002090600602016000909192909190915060008201518160000160006101000a81548173ffffffffffffffffffffffffffffffffffffffff021916908373ffffffffffffffffffffffffffffffffffffffff160217905550602082015181600101908051906020019061108892919061272f565b506040820151816002015560608201518160030160006101000a81548160ff02191690831515021790555060808201518160040190805190602001906110cf92919061272f565b5060a082015181600501555050507f2728c9d3205d667bbc0eefdfeda366261b4d021949630c047f3e5834b30611ab33600154604051808373ffffffffffffffffffffffffffffffffffffffff1673ffffffffffffffffffffffffffffffffffffffff1681526020018281526020019250505060405180910390a15050505050565b6060600080339050600091505b600360008273ffffffffffffffffffffffffffffffffffffffff1673ffffffffffffffffffffffffffffffffffffffff168152602001908152602001600020805490508210156112cb5783600360008373ffffffffffffffffffffffffffffffffffffffff1673ffffffffffffffffffffffffffffffffffffffff16815260200190815260200160002083815481106111f357fe5b90600052602060002090600602016002015414156112be576000600360008373ffffffffffffffffffffffffffffffffffffffff1673ffffffffffffffffffffffffffffffffffffffff168152602001908152602001600020838154811061125757fe5b906000526020600020906006020160030160006101000a81548160ff0219169083151502179055506040518060400160405280601181526020017f52454d4f5645442046524f4d2053414c4500000000000000000000000000000081525092505050611306565b818060010192505061115e565b6040518060400160405280600f81526020017f494e56414c4944204c414e442049440000000000000000000000000000000000815250925050505b919050565b606060008060606000806000339050600360008273ffffffffffffffffffffffffffffffffffffffff1673ffffffffffffffffffffffffffffffffffffffff168152602001908152602001600020888154811061136457fe5b9060005260206000209060060201600101600360008373ffffffffffffffffffffffffffffffffffffffff1673ffffffffffffffffffffffffffffffffffffffff16815260200190815260200160002089815481106113bf57fe5b906000526020600020906006020160050154600360008473ffffffffffffffffffffffffffffffffffffffff1673ffffffffffffffffffffffffffffffffffffffff1681526020019081526020016000208a8154811061141b57fe5b906000526020600020906006020160000160009054906101000a900473ffffffffffffffffffffffffffffffffffffffff16600360008573ffffffffffffffffffffffffffffffffffffffff1673ffffffffffffffffffffffffffffffffffffffff1681526020019081526020016000208b8154811061149757fe5b9060005260206000209060060201600401600360008673ffffffffffffffffffffffffffffffffffffffff1673ffffffffffffffffffffffffffffffffffffffff1681526020019081526020016000208c815481106114f257fe5b906000526020600020906006020160020154600360008773ffffffffffffffffffffffffffffffffffffffff1673ffffffffffffffffffffffffffffffffffffffff1681526020019081526020016000208d8154811061154e57fe5b906000526020600020906006020160030160009054906101000a900460ff16858054600181600116156101000203166002900480601f0160208091040260200160405190810160405280929190818152602001828054600181600116156101000203166002900480156116025780601f106115d757610100808354040283529160200191611602565b820191906000526020600020905b8154815290600101906020018083116115e557829003601f168201915b50505050509550828054600181600116156101000203166002900480601f01602080910402602001604051908101604052809291908181526020018280546001816001161561010002031660029004801561169e5780601f106116735761010080835404028352916020019161169e565b820191906000526020600020905b81548152906001019060200180831161168157829003601f168201915b505050505092509650965096509650965096505091939550919395565b60606000806060600080600360008973ffffffffffffffffffffffffffffffffffffffff1673ffffffffffffffffffffffffffffffffffffffff168152602001908152602001600020878154811061170f57fe5b9060005260206000209060060201600101600360008a73ffffffffffffffffffffffffffffffffffffffff1673ffffffffffffffffffffffffffffffffffffffff168152602001908152602001600020888154811061176a57fe5b906000526020600020906006020160050154600360008b73ffffffffffffffffffffffffffffffffffffffff1673ffffffffffffffffffffffffffffffffffffffff16815260200190815260200160002089815481106117c657fe5b906000526020600020906006020160000160009054906101000a900473ffffffffffffffffffffffffffffffffffffffff16600360008c73ffffffffffffffffffffffffffffffffffffffff1673ffffffffffffffffffffffffffffffffffffffff1681526020019081526020016000208a8154811061184257fe5b9060005260206000209060060201600401600360008d73ffffffffffffffffffffffffffffffffffffffff1673ffffffffffffffffffffffffffffffffffffffff1681526020019081526020016000208b8154811061189d57fe5b906000526020600020906006020160020154600360008e73ffffffffffffffffffffffffffffffffffffffff1673ffffffffffffffffffffffffffffffffffffffff1681526020019081526020016000208c815481106118f957fe5b906000526020600020906006020160030160009054906101000a900460ff16858054600181600116156101000203166002900480601f0160208091040260200160405190810160405280929190818152602001828054600181600116156101000203166002900480156119ad5780601f10611982576101008083540402835291602001916119ad565b820191906000526020600020905b81548152906001019060200180831161199057829003601f168201915b50505050509550828054600181600116156101000203166002900480601f016020809104026020016040519081016040528092919081815260200182805460018160011615610100020316600290048015611a495780601f10611a1e57610100808354040283529160200191611a49565b820191906000526020600020905b815481529060010190602001808311611a2c57829003601f168201915b505050505092509550955095509550955095509295509295509295565b60008090505b600360008473ffffffffffffffffffffffffffffffffffffffff1673ffffffffffffffffffffffffffffffffffffffff168152602001908152602001600020805490508110156120645781600360008573ffffffffffffffffffffffffffffffffffffffff1673ffffffffffffffffffffffffffffffffffffffff1681526020019081526020016000208281548110611b0157fe5b906000526020600020906006020160020154141561205757611b216126e1565b6040518060c001604052803373ffffffffffffffffffffffffffffffffffffffff168152602001600360008773ffffffffffffffffffffffffffffffffffffffff1673ffffffffffffffffffffffffffffffffffffffff1681526020019081526020016000208481548110611b9257fe5b90600052602060002090600602016001018054600181600116156101000203166002900480601f016020809104026020016040519081016040528092919081815260200182805460018160011615610100020316600290048015611c375780601f10611c0c57610100808354040283529160200191611c37565b820191906000526020600020905b815481529060010190602001808311611c1a57829003601f168201915b50505050508152602001600360008773ffffffffffffffffffffffffffffffffffffffff1673ffffffffffffffffffffffffffffffffffffffff1681526020019081526020016000208481548110611c8b57fe5b9060005260206000209060060201600201548152602001600360008773ffffffffffffffffffffffffffffffffffffffff1673ffffffffffffffffffffffffffffffffffffffff1681526020019081526020016000208481548110611cec57fe5b906000526020600020906006020160030160009054906101000a900460ff1615158152602001600360008773ffffffffffffffffffffffffffffffffffffffff1673ffffffffffffffffffffffffffffffffffffffff1681526020019081526020016000208481548110611d5c57fe5b90600052602060002090600602016004018054600181600116156101000203166002900480601f016020809104026020016040519081016040528092919081815260200182805460018160011615610100020316600290048015611e015780601f10611dd657610100808354040283529160200191611e01565b820191906000526020600020905b815481529060010190602001808311611de457829003601f168201915b50505050508152602001600360008773ffffffffffffffffffffffffffffffffffffffff1673ffffffffffffffffffffffffffffffffffffffff1681526020019081526020016000208481548110611e5557fe5b9060005260206000209060060201600501548152509050600360003373ffffffffffffffffffffffffffffffffffffffff1673ffffffffffffffffffffffffffffffffffffffff168152602001908152602001600020819080600181540180825580915050906001820390600052602060002090600602016000909192909190915060008201518160000160006101000a81548173ffffffffffffffffffffffffffffffffffffffff021916908373ffffffffffffffffffffffffffffffffffffffff1602179055506020820151816001019080519060200190611f3a92919061272f565b506040820151816002015560608201518160030160006101000a81548160ff0219169083151502179055506080820151816004019080519060200190611f8192919061272f565b5060a08201518160050155505050600360008573ffffffffffffffffffffffffffffffffffffffff1673ffffffffffffffffffffffffffffffffffffffff1681526020019081526020016000208281548110611fd957fe5b9060005260206000209060060201600080820160006101000a81549073ffffffffffffffffffffffffffffffffffffffff021916905560018201600061201f91906127af565b60028201600090556003820160006101000a81549060ff021916905560048201600061204b91906127af565b60058201600090555050505b8080600101915050611a6c565b505050565b6000600360008373ffffffffffffffffffffffffffffffffffffffff1673ffffffffffffffffffffffffffffffffffffffff168152602001908152602001600020805490509050919050565b600080600090505b600360003373ffffffffffffffffffffffffffffffffffffffff1673ffffffffffffffffffffffffffffffffffffffff168152602001908152602001600020805490508110156126c85782600360003373ffffffffffffffffffffffffffffffffffffffff1673ffffffffffffffffffffffffffffffffffffffff168152602001908152602001600020828154811061215257fe5b90600052602060002090600602016002015414156126bb576121726126e1565b6040518060c001604052808673ffffffffffffffffffffffffffffffffffffffff168152602001600360003373ffffffffffffffffffffffffffffffffffffffff1673ffffffffffffffffffffffffffffffffffffffff16815260200190815260200160002084815481106121e357fe5b90600052602060002090600602016001018054600181600116156101000203166002900480601f0160208091040260200160405190810160405280929190818152602001828054600181600116156101000203166002900480156122885780601f1061225d57610100808354040283529160200191612288565b820191906000526020600020905b81548152906001019060200180831161226b57829003601f168201915b50505050508152602001858152602001600360003373ffffffffffffffffffffffffffffffffffffffff1673ffffffffffffffffffffffffffffffffffffffff16815260200190815260200160002084815481106122e257fe5b906000526020600020906006020160030160009054906101000a900460ff1615158152602001600360003373ffffffffffffffffffffffffffffffffffffffff1673ffffffffffffffffffffffffffffffffffffffff168152602001908152602001600020848154811061235257fe5b90600052602060002090600602016004018054600181600116156101000203166002900480601f0160208091040260200160405190810160405280929190818152602001828054600181600116156101000203166002900480156123f75780601f106123cc576101008083540402835291602001916123f7565b820191906000526020600020905b8154815290600101906020018083116123da57829003601f168201915b50505050508152602001600360003373ffffffffffffffffffffffffffffffffffffffff1673ffffffffffffffffffffffffffffffffffffffff168152602001908152602001600020848154811061244b57fe5b9060005260206000209060060201600501548152509050600360008673ffffffffffffffffffffffffffffffffffffffff1673ffffffffffffffffffffffffffffffffffffffff168152602001908152602001600020819080600181540180825580915050906001820390600052602060002090600602016000909192909190915060008201518160000160006101000a81548173ffffffffffffffffffffffffffffffffffffffff021916908373ffffffffffffffffffffffffffffffffffffffff160217905550602082015181600101908051906020019061253092919061272f565b506040820151816002015560608201518160030160006101000a81548160ff021916908315150217905550608082015181600401908051906020019061257792919061272f565b5060a08201518160050155505050600360003373ffffffffffffffffffffffffffffffffffffffff1673ffffffffffffffffffffffffffffffffffffffff16815260200190815260200160002082815481106125cf57fe5b9060005260206000209060060201600080820160006101000a81549073ffffffffffffffffffffffffffffffffffffffff021916905560018201600061261591906127af565b60028201600090556003820160006101000a81549060ff021916905560048201600061264191906127af565b600582016000905550508473ffffffffffffffffffffffffffffffffffffffff163373ffffffffffffffffffffffffffffffffffffffff167fddf252ad1be2c89b69c2b068fc378daa952ba7f163c4a11628f55a4df523b3ef866040518082815260200191505060405180910390a36001925050506126ce565b80806001019150506120bd565b50600090505b92915050565b6101168061281d83390190565b6040518060c00160405280600073ffffffffffffffffffffffffffffffffffffffff168152602001606081526020016000815260200160001515815260200160608152602001600081525090565b828054600181600116156101000203166002900490600052602060002090601f016020900481019282601f1061277057805160ff191683800117855561279e565b8280016001018555821561279e579182015b8281111561279d578251825591602001919060010190612782565b5b5090506127ab91906127f7565b5090565b50805460018160011615610100020316600290046000825580601f106127d557506127f4565b601f0160209004906000526020600020908101906127f391906127f7565b5b50565b61281991905b808211156128155760008160009055506001016127fd565b5090565b9056fe608060405234801561001057600080fd5b5060f78061001f6000396000f3fe608060405260043610601c5760003560e01c8063d0679d34146021575b600080fd5b606a60048036036040811015603557600080fd5b81019080803573ffffffffffffffffffffffffffffffffffffffff16906020019092919080359060200190929190505050606c565b005b80341015607857600080fd5b8173ffffffffffffffffffffffffffffffffffffffff166108fc349081150290604051600060405180830381858888f1935050505015801560bd573d6000803e3d6000fd5b50505056fea265627a7a723158208f355349d966466e1193268dbc026f7cef5692354d67c2d5984dabe2c6c6300a64736f6c63430005100032a265627a7a7231582090064e142e60805c5b7059810bcf87f5251602d498056cded820f542e8bb7a9064736f6c634300051000326080604052348015600f57600080fd5b50603b80601d6000396000f3fe608060405200fea265627a7a723158208f9ba4aa9fabc053458d9a190f808f6e2874ba14a714630bf8d41139005308a664736f6c63430005100032",
  "source": "pragma solidity ^0.5.1;\r\n\r\ncontract EtherReceiver {\r\n\r\n    function () external  payable {}\r\n}\r\ncontract Sender {\r\n\r\n    function send(address payable _addr, uint amount) payable public {\r\n        require(msg.value >= amount);\r\n        _addr.transfer(msg.value);\r\n    }\r\n}\r\ncontract RealEstate {\r\n\r\n        enum Type  {Apartment, MultiFamilyHouse, TerracedHouse, Condominium, Cooperative, Vilas, Plot,Other }\r\n\r\n    //// Proprty structure\r\n        struct Property\r\n    {\r\n        address  ownerAddress;\r\n        string location;\r\n        uint propertyId;\r\n        bool isAvailableForSale;\r\n        string propertyType;\r\n        uint cost;\r\n    }\r\n\r\n    address public owner;\r\n    uint public totalPropertyCounter;\r\n\r\n    string[] myArray;\r\n\r\n    function RegisterUser() public\r\n    {\r\n        owner = msg.sender;\r\n        totalPropertyCounter = 0;\r\n    }\r\n\r\n    //Blockchain events start\r\n\r\n    event Add(address _owner, uint _propertyId);\r\n    event UpdateStatus(string _msg,uint _cost);\r\n    event Transfer(address indexed _from, address indexed _to, uint _propertyId);\r\n    event EtherTransfer(address indexed _from, address indexed _to, uint _cost);\r\n\r\n    //Blockchain events end\r\n\r\n\r\n    mapping (address => Property[]) public _ownedProperty;\r\n    mapping (address => uint) balance;\r\n\r\n\r\n\r\n    //owner can add Property to the Blockchain using this method\r\n\r\n    function addProperty(address payable  propertyOwner,string memory _location, uint _cost, string memory _propertyType) public\r\n    {\r\n        require(msg.sender == owner);\r\n        totalPropertyCounter = totalPropertyCounter + 1;\r\n        Property memory property = Property(\r\n            {\r\n                ownerAddress: propertyOwner,\r\n                location: _location,\r\n                cost: _cost,\r\n                propertyType: _propertyType,\r\n                propertyId: totalPropertyCounter,\r\n                isAvailableForSale: true\r\n\r\n            });\r\n        _ownedProperty[msg.sender].push(property);\r\n\r\n        //emit is used to with events\r\n       emit Add(msg.sender, totalPropertyCounter);\r\n    }\r\n\r\n        EtherReceiver private receiverAdr = new EtherReceiver();\r\n\r\n\r\n\r\n  /// This method is used to transfer ether from caller accout to some other account\r\n    function transferEther(address payable rec,uint _amount) public payable {\r\n                require(msg.value >= 1 ether);\r\n\r\nSender s = new Sender();\r\ns.send(rec,_amount);\r\n    }\r\n\r\n\r\n\r\n    //This method is used to transfer property from caller account to some other account\r\n    function transferProperty(address payable  _landBuyer, uint _propertyId) payable public returns (bool)\r\n    {\r\n        for(uint i=0; i < (_ownedProperty[msg.sender].length);i++)\r\n        {\r\n            if (_ownedProperty[msg.sender][i].propertyId == _propertyId)\r\n            {\r\n                    Property memory property = Property(\r\n                    {\r\n                        ownerAddress:_landBuyer,\r\n                        location: _ownedProperty[msg.sender][i].location,\r\n                        cost: _ownedProperty[msg.sender][i].cost,\r\n                        propertyType: _ownedProperty[msg.sender][i].propertyType,\r\n                        propertyId: _propertyId,\r\n                        isAvailableForSale: _ownedProperty[msg.sender][i].isAvailableForSale\r\n                    });\r\n                _ownedProperty[_landBuyer].push(property);\r\n\r\n\r\n\r\n               //  EtherTransfer(msg.sender,_landBuyer,_ownedLands[msg.sender][i].cost);\r\n                //remove land from current ownerAddress\r\n                delete _ownedProperty[msg.sender][i];\r\n\r\n\r\n                //inform the world\r\n               emit Transfer(msg.sender, _landBuyer, _propertyId);\r\n\r\n                return true;\r\n            }\r\n        }\r\n                return false;\r\n    }\r\n\r\n\r\n\r\n    //get land details of any account\r\n    function getProperty(address _propertyHolder, uint _index) public view returns (string memory, uint, address,string memory,uint, bool)\r\n    {\r\n        return (_ownedProperty[_propertyHolder][_index].location,\r\n                _ownedProperty[_propertyHolder][_index].cost,\r\n                _ownedProperty[_propertyHolder][_index].ownerAddress,\r\n                _ownedProperty[_propertyHolder][_index].propertyType,\r\n                _ownedProperty[_propertyHolder][_index].propertyId,\r\n                _ownedProperty[_propertyHolder][_index].isAvailableForSale\r\n                );\r\n    }\r\n\r\n\r\n      //get land details of caller account\r\n    function getOwnerProperty( uint _index) public view returns (string memory, uint, address,string memory,uint, bool)\r\n    {\r\n        address _propertyHolder = msg.sender;\r\n        return (_ownedProperty[_propertyHolder][_index].location,\r\n                _ownedProperty[_propertyHolder][_index].cost,\r\n                _ownedProperty[_propertyHolder][_index].ownerAddress,\r\n                _ownedProperty[_propertyHolder][_index].propertyType,\r\n                _ownedProperty[_propertyHolder][_index].propertyId,\r\n                _ownedProperty[_propertyHolder][_index].isAvailableForSale\r\n                );\r\n    }\r\n\r\n//    function withdraw() public {\r\n  //      msg.sender.transfer(address(this).balance);\r\n    //}\r\n\r\n\r\n\r\n    // remove pproperty from sale\r\n    function RemoveFromSale(uint property_id) public returns (string memory){\r\n\r\n        uint indexer;\r\n        address _propertyHolder =msg.sender;\r\n\r\n        for(indexer=0; indexer < (_ownedProperty[_propertyHolder].length);indexer++){\r\n             if ( _ownedProperty[_propertyHolder][indexer].propertyId == property_id ){\r\n                     _ownedProperty[_propertyHolder][indexer].isAvailableForSale=false;\r\n                     return \"REMOVED FROM SALE\";\r\n             }\r\n         }\r\n        return \"INVALID LAND ID\";\r\n    }\r\n\r\n\r\n    /// Add a property for sale\r\n    function AddForSale(uint property_id) public returns (string memory){\r\n\r\n        uint indexer;\r\n        address _propertyHolder =msg.sender;\r\n\r\n        for(indexer=0; indexer < (_ownedProperty[_propertyHolder].length);indexer++){\r\n             if ( _ownedProperty[_propertyHolder][indexer].propertyId == property_id ){\r\n                     _ownedProperty[_propertyHolder][indexer].isAvailableForSale=true;\r\n                     return \"ADDED FOR SALE\";\r\n             }\r\n         }\r\n        return \"INVALID LAND ID\";\r\n    }\r\n\r\n\r\n    // get total no of property owned by an account\r\n    function getNoOfProperty(address _propertyHolder) public view returns (uint)\r\n    {\r\n        return _ownedProperty[_propertyHolder].length;\r\n    }\r\n\r\n\r\n    //buying the approved property\r\n    function buyProperty(address _propertyHolder,uint property)public payable{\r\n\r\n                uint indexer;\r\n      //  require(msg.value >= (_ownedProperty[_propertyHolder][property].cost+((_ownedProperty[_propertyHolder][property].cost)/10)));\r\n        for(indexer=0; indexer < (_ownedProperty[_propertyHolder].length);indexer++){\r\n             if ( _ownedProperty[_propertyHolder][indexer].propertyId == property ){\r\n\r\n\r\n        //_ownedProperty[_propertyHolder][indexer].ownerAddress.transfer(_ownedProperty[_propertyHolder][indexer].cost);\r\n\r\n                 Property memory propertyNew = Property(\r\n                    {\r\n                        ownerAddress:msg.sender,\r\n                        location: _ownedProperty[_propertyHolder][indexer].location,\r\n                        cost: _ownedProperty[_propertyHolder][indexer].cost,\r\n                        propertyType: _ownedProperty[_propertyHolder][indexer].propertyType,\r\n                        propertyId: _ownedProperty[_propertyHolder][indexer].propertyId,\r\n                        isAvailableForSale: _ownedProperty[_propertyHolder][indexer].isAvailableForSale\r\n                    });\r\n\r\n        _ownedProperty[msg.sender].push(propertyNew);\r\n        delete _ownedProperty[_propertyHolder][indexer];\r\n\r\n             }\r\n    }\r\n    }\r\n}\r\n",
  "sourcePath": "D:\\projects\\NewProjects\\RealEstateApp\\contracts\\RealEstate.sol",
  "compiler": {
    "name": "solc",
    "version": "0.5.16+commit.9c3226ce.Emscripten.clang"
  },
  "schemaVersion": "3.2.2",
  "updatedAt": "2020-07-14T15:26:28.919Z",
  "networkType": "ethereum",
  "devdoc": {
    "methods": {}
  },
  "userdoc": {
    "methods": {
      "AddForSale(uint256)": {
        "notice": "Add a property for sale"
      },
      "transferEther(address,uint256)": {
        "notice": "This method is used to transfer ether from caller accout to some other account"
      }
    }
  }
}